:020000040800F2
:10000000680400204501000897110008050E00084B
:1000100095110008B1010008F1110008000000006E
:100020000000000000000000000000009B1100081C
:10003000B301000800000000991100089D1100089C
:100040005F0100085F0100085F0100085F01000810
:100050005F0100085F0100085F0100085F01000800
:100060005F0100085F0100085F0100085F010008F0
:100070005F0100085F0100085F0100085F010008E0
:100080005F0100085F0100085F0100085F010008D0
:100090005F0100085F0100085F0100085F010008C0
:1000A0005F0100085F0100085F0100085F010008B0
:1000B0005F0100085F0100085F0100085F010008A0
:1000C0005F0100085F0100085F0100085F01000890
:1000D0005F0100085F0100085F0100085F01000880
:1000E0005F0100085F0100085F0100085F01000870
:1000F0005F0100085F0100085F0100085F01000860
:100100005F0100085F0100085F0100085F0100084F
:100110005F0100085F0100085F0100085F0100083F
:100120005F0100085F0100085F0100085F0100082F
:10013000DFF80CD000F02AF8004800473112000820
:10014000680400200648804706480047FEE7FEE7AF
:10015000FEE7FEE7FEE7FEE7FEE7FEE7FEE7FEE777
:10016000EF11000831010008D2B201E000F8012BC4
:10017000491EFBD270470022F6E710B513460A4627
:1001800004461946FFF7F0FF204610BD064C074D08
:1001900006E0E06840F0010394E807009847103457
:1001A000AC42F6D3FFF7C8FF6C1200088C120008AF
:1001B000FEE77047704700002DE9F84FDFF8C8915F
:1001C000002409F1040A0AF1040B23460F270BF15E
:1001D000040ED1E00125A54006EA0502AA4276D127
:1001E000DFF8A8C14E68A6EB0C0866452BD00DDCE5
:1001F000032E34D005DC36B3012E19D0022E2FD1B8
:100200001BE0112E16D0122E2AD119E0B8F5881F46
:1002100019D006DCB8F5803F15D0B8F5801F1FD186
:1002200011E0B8F5001F0ED0B8F5041F18D10AE090
:10023000CB6815E0CB681B1D12E0CB6808330FE0DC
:10024000CB680C330CE08B682BB1012B4FF008030B
:1002500003D0456104E0042302E0056100E00023CF
:10026000FF2A01D8064601E000F104064FEA8405A2
:1002700001D9A5F12005D6F8008007FA05FC28EA87
:100280000C0803FA05F548EA0508C6F800804D6831
:10029000ED0070D53E4DAE6946F00106AE61AD6928
:1002A00024F0030605F0010500953A4D06EB050C18
:1002B000DCF80850A607360F07FA06F825EA080505
:1002C000DFF8D480404503D14FF0000825E052E02C
:1002D000DFF8C880404502D14FF001081DE0DFF88B
:1002E000C080404502D14FF0020816E0DFF8B4802C
:1002F000404502D14FF003080FE0DFF8AC804045E5
:1003000002D14FF0040808E0DFF8A080404502D198
:100310004FF0050801E04FF0060808FA06F848EA31
:100320000508CCF808804D68D9F80060ED034D460B
:1003300001D5164300E096432E604D68DAF8006060
:10034000AD03554601D5164300E096432E604D6837
:10035000DBF80060ED025D4601D5164300E09643F0
:100360002E604D68DEF80060AD02754601D516437B
:1003700000E096432E60641C0A681646E2407FF453
:1003800029AFBDE8F88F0000000401400000111003
:10039000001002400000014000080140000C014034
:1003A000001001400014014000180140001C0140F1
:1003B00001488068704700000400002070B5040008
:1003C00025D094F83D00002520B984F83C50204603
:1003D00000F0E0F9242084F83D002068016821F055
:1003E000010101602068016841F40041016020685A
:1003F000016821F40041016000F01AFB4D4A616878
:10040000914201D84C4900E04C49884201D2012078
:1004100070BD4B492368B0FBF1F15E6826F03F06E2
:100420000E435E606368934206D94FF49673594356
:100430004FF47A73B1FBF3F12368491C1E6A26F06E
:100440003F06314319626168914210D84900401E4D
:10045000B0FBF1F2521CC2F30B02042A01D20420B9
:1004600022E0B0FBF1F0401CC0F30B001CE0A268DE
:10047000F2B301EBC10303EB0116431EB3FBF6F32A
:100480005B1C43F480431B0549D092B301EBC102CE
:1004900002EB0111401EB0FBF1F0401CC0F30B0059
:1004A00040F4804040F400402168CA694CF6FF7374
:1004B0009A431043C861D4E90710014320680268D9
:1004C00022F0C00211430160D4E903010143206816
:1004D000826848F2FF339A4311438160D4E90501F1
:1004E00008432168CA6822F0FF021043C86001E097
:1004F0000EE016E02068016841F00101016025640A
:10050000202084F83D00256384F83E50002070BD13
:1005100001EB4106431EB3FBF6F35B1CB3E701207E
:10052000C2E701EB4101401EB0FBF1F0401CC0F3FB
:100530000B00B7E7A086010080841E0000093D0083
:1005400040420F002DE9FF4F83B00025DDE910790F
:100550009A4693460446DDF848800095FFF728FF49
:10056000064694F83D0020287CD1192301228549B4
:100570002046009600F0DCFC0028F5D194F83C0001
:1005800001286FD0012084F83C0020680168C90769
:1005900003D1016841F0010101602068016821F484
:1005A00000610160222084F83D00402084F83E0074
:1005B00025646762A4F82A90608D20857248E06205
:1005C000CDE9008653465A462046049900F032FC95
:1005D00000287DD1208DDFF8B491202768B1012853
:1005E00014D00228206801681ED041F480610160A7
:1005F0002068416980690090B6E02068416981699E
:100600000091016841F400710160ADE0206801686B
:1006100021F48061016072B62068416981690091AE
:10062000016841F400710AE041F40061016072B6B2
:100630002068416981690091016821F4806101604D
:1006400062B691E0032868D801280CD002284346FE
:100650004FF000024946204600960FD000F068FC9B
:10066000B0BB10E08BE032464146204600F0DFFC94
:1006700070BB20680069616A08706CE000F058FC8B
:1006800030BB72B634E02068016821F480610160FB
:1006900072B620680069616A0870606A401C606216
:1006A000208D401E2085608D401E6085384846F2B2
:1006B000A8110068B0FBF1F0C0EBC00000EB8000B7
:1006C0000090401E009008D020684069C04300E0C0
:1006D00029E040070CD50098F3E744F8305F6773D2
:1006E000A573206940F02000206162B625731AE0EE
:1006F0002068016841F40071016020680069616A46
:100700000870606A401C6062218D491E2185618DE0
:10071000491E618562B621681BE03246414620468B
:1007200000F085FC18B1012007B0BDE8F08F20680B
:100730000069616A0870606A401C6062218D491E10
:100740002185618D491E618521684A69D24352071E
:100750000AD409690170606A401C6062208D401EE5
:100760002085608D401E6085208D00287FF46AAF53
:1007700084F83D7084F83E5084F83C50D4E7022061
:10078000D2E70000020010000000FFFF040001009B
:100790001000002010B586B0002100910191029157
:1007A000039100680F4988421AD10F4CA06940F0AC
:1007B0000800A061A069694600F008000490C0200C
:1007C000009012200190032003900848FFF7F4FCEA
:1007D000E06940F40010E061E06900F4001004906A
:1007E00006B010BD0054004000100240000C014053
:1007F000024881680278114481607047040000203B
:10080000074810B5016841F010010160032000F0B5
:1008100067F8002000F006F800F024F8002010BD72
:100820000020024070B50D4D04464FF47A712878CF
:10083000B1FBF0F00A490968B1FBF0F000F0CEFA24
:1008400048B9102C07D200222146501E00F028F88B
:1008500000206C6070BD012070BD0000040000200D
:10086000100000200C4808B5816941F00101816148
:10087000816901F001010091C16941F08051C161BC
:10088000C06900F0805000900448416821F0E061A8
:1008900041F00071416008BD0010024000000140BD
:1008A000F0B40E4B1B680C46C3F30223C3F10705DB
:1008B000042D00D90425191D072901D2002300E0C9
:1008C000DB1E012606FA05F1491E214099409E4093
:1008D000761E16403143F0BC00F08BBC0CED00E0FE
:1008E000064900F0070208684FF6FF03184040EA87
:1008F0000220034A10430860704700000CED00E03E
:100900000000FA052DE9F0470F46050061D0434E7F
:10091000306800F00700B84209D2306820F00700C4
:1009200038433060306800F00700B84251D1286881
:100930003B4C810712D5400703D5606840F4E06066
:1009400060602878000703D5606840F460506060FC
:100950006068A96820F0F000084360602878C0074C
:1009600028D06868012810D02168022810D0890793
:1009700000292EDA616821F0030101436160FFF76D
:1009800017FD804641F288390DE021688903EFE7C1
:100990008901EDE7FFF70CFDA0EB0801494502D9FD
:1009A0000320BDE8F0876068696800F00C00B0EBD8
:1009B000810FEFD1306800F00700B8420BD93068E2
:1009C00020F0070038433060306800F00700B8427C
:1009D00001D00120E5E72878400705D56068E9687F
:1009E00020F4E060084360602878000706D560685E
:1009F000296920F4605040EAC100606000F028F8E6
:100A00006168084AC1F30311515CC8400649086097
:100A100006480068FFF706FF0020C2E700200240FA
:100A200000100240541200081000002008000020AE
:100A30000448054900684968044AC1F30221515C31
:100A4000C8407047100000200010024064120008E7
:100A500012A185B00FC98DE80F0014A0144A0068D8
:100A600004905168134801F00C03042B10D0082B9C
:100A70000ED1C1F38343C9031DF803000AD55168A1
:100A800004AAC1F34041515C0A4A5043B0FBF1F063
:100A900005B0704708494843FAE70000020304051F
:100AA000060708090A0B0C0D0E0F101001020000BA
:100AB0000010024000127A0000093D002DE9F84FB5
:100AC000040070D02078C04DC00749D06868C0F3DA
:100AD0008100012807D06868C0F38100022809D18D
:100AE0006868C00306D52868800339D56068002887
:100AF000E7D035E06068B0F5803F0BD010B1B0F5BD
:100B0000A02F11D0286820F480302860286820F4B5
:100B1000802002E0286840F480302860606890B14E
:100B2000FFF746FC06460AE0286840F4802028606B
:100B3000F0E700BFFFF73CFC801B642873D82868EF
:100B40008003F7D50CE0FFF733FC064605E000BF55
:100B5000FFF72EFC801B6428F0D828688003F7D4A8
:100B600020789A4E80074FF001094FF0000839D5E0
:100B7000686810F00C0F07D06868C0F38100022885
:100B800009D16868C00306D42868800714D5206995
:100B9000012808D110E02069B0B1C6F80090FFF735
:100BA00007FC074605E00AE1FFF702FCC01B02282C
:100BB000C4D828688007F7D52868616920F0F80054
:100BC00040EAC10028600DE0C6F80080FFF7F0FBA6
:100BD000074604E0FFF7ECFBC01B022823D8286877
:100BE0008007F7D4207800072CD57948A169D9B1BE
:100BF000C0F80090FFF7DCFB074604E0FFF7D8FBE6
:100C0000C01B02280FD8686A8007F7D571484FF4D7
:100C1000FA510068B0FBF1F0009000BF0098411E4F
:100C20000091FAD20EE080E0C0F80080FFF7C0FB30
:100C3000074604E0FFF7BCFBC01B022875D8686AB2
:100C40008007F7D42078400760D5E8690027C00006
:100C500008D4E86940F08050E861E869012700F0B5
:100C6000805000905C480168C90513D40168834630
:100C700041F480710160FFF79BFB824606E000BFF4
:100C8000FFF796FBA0EB0A0064284ED8DBF80000C3
:100C9000C005F5D5E06801280AD008B1052813D0B1
:100CA000286A20F001002862286A20F0040002E08F
:100CB000286A40F001002862E06841F2883B98B160
:100CC000FFF776FB82460BE0286A40F004002862BA
:100CD000EEE700BFFFF76CFBA0EB0A0159455AD8BD
:100CE000286A8007F6D50CE0FFF762FB824605E034
:100CF000FFF75EFBA0EB0A0159454CD8286A800734
:100D0000F6D41FB1E86920F08050E861E06988B34B
:100D10006968C1F38101022944D00228C6F86080C5
:100D200004D0FFF745FB044638E034E0FFF740FB12
:100D3000074604E0FFF73CFBC01B02282BD82868BD
:100D40008001F7D4206AB0F5803F05D16868A168BA
:100D500020F4003008436860D4E90801084369685A
:100D600021F4741108436860C6F86090FFF720FB17
:100D7000044606E025E000BFFFF71AFB001B02282F
:100D800009D828688001F7D51BE000BFFFF710FBEA
:100D9000001B022802D90320BDE8F88F28688001D3
:100DA000F4D40EE00128F7D06868226A00F480319C
:100DB000914204D1616A00F47010884201D0012090
:100DC000EAE70020E8E7000000100240000042428D
:100DD00080044242100000200070004010B5401E08
:100DE000B0F1807F01D3012010BD4FF0E02460619D
:100DF0000F21601700F0FDF90020A061072020619D
:100E0000002010BDFEE701684A69D24352050FD4A5
:100E10006FF480624A61002140F8301F2022427343
:100E20008173026942F0040202610173012070477C
:100E3000002070472DE9F84F0446006889460B9D55
:100E400001689846174641F4806101602068016896
:100E500041F48071016000954FF0011B002259465A
:100E600020460A9B00F064F84FF4007A40B12068F5
:100E70000068C00501D5C4F840A00320BDE8F88F84
:100E8000216809F0FE0008612B46284920460A9A8D
:100E900000F082F8F0BB20684169806900902A4622
:100EA00020460A9900F0F6F840B1206C04283AD1A7
:100EB0002068016841F40071016034E0FEB2B8F1CD
:100EC000010F09D02168380A08612A4620460A998C
:100ED00000F0E0F80028E8D1206806612A462046A4
:100EE0000A9900F0D7F80028DFD12068016841F4A2
:100EF0008071016000950022594620460A9B00F04F
:100F000017F80028B3D1216809F0FF0040F0010074
:100F1000086100E007E02B46044920460A9A00F0E9
:100F20003BF80028AAD00120A8E700000200010039
:100F30002DE9F0471E4690460D460446C1F307478B
:100F4000DDF8209008E0701C06D0FFF731FAA0EB26
:100F50000900B0420FD876B12068012F18D08069FF
:100F600025EA00000004000C14D000214145EAD01D
:100F70000020BDE8F087002044F8300F2021617385
:100F8000A073216941F02001216120730120F0E765
:100F90004069E5E70121E9E72DE9F0479A469146E6
:100FA0000E46044600254FF02008C1F3074725E010
:100FB00020684069C043400514D42068016841F4AA
:100FC0000071016021686FF480604861256384F8D6
:100FD0003D8084F83E50206C40F00400206484F88A
:100FE0003C501FE0B9F1FF3F08D0FFF7E1F9A0EB5B
:100FF0000A0149450CD8B9F1000F09D02068012F2A
:1010000013D0806926EA00000004000C0BD0CFE763
:1010100044F8305F84F80D80A573206940F020000B
:10102000206125730120BDE8F0874069EAE72DE9DA
:10103000F041002590460E460446202717E04069FF
:10104000C043C0060CD454F8301B6FF01000486148
:1010500044F810596777A577206A2062257717E052
:10106000FFF7A6F9A0EB0800B04208D83EB120680F
:101070004169C9434906E2D40020BDE8F08144F843
:10108000305F6773A573206940F0200020612573ED
:101090000120F2E770B516460D4604460DE02046E5
:1010A000FFF7B1FE08B1012070BD681C05D0FFF745
:1010B0007FF9801BA84207D835B120684069C0433A
:1010C0000006ECD4002070BD002044F8300F202131
:1010D0006173A073216941F0200121612073E2E76F
:1010E0001FB500228DF80C200A24012303AA8DE8E5
:1010F0001C000A4601460348FFF724FA9DF80C003D
:1011000004B010BD14000020114808B5816941F0F9
:1011100010018161816901F010010091816941F044
:1011200020018161816901F020010091816941F014
:1011300004018161816901F004010091816941F03C
:1011400008018161806900F00800009008BD00007E
:10115000001002400D4810B50B4901600C49416078
:1011600000214FF480428160C0E903124161816136
:10117000C1610162FFF722F9002803D0BDE81040E9
:10118000FFF718B810BD0000005400401400002004
:10119000801A0600FEE7704770477047FFF728BBCC
:1011A00030B58FB028216846FEF7E5FF14210AA864
:1011B000FEF7E1FF01210804CDE9001000240294AC
:1011C00002250491CDE907504FF4E01009906846DC
:1011D000FFF774FC0F20CDE90A056802CDE90C4049
:1011E00002210AA80E94FFF78DFB0FB030BD7047A7
:1011F000FEE70907090E002804DB00F1E02080F873
:101200000014704700F00F0000F1E02080F8141D7A
:10121000704702E008C8121F08C1002AFAD17047BF
:101220007047002001E001C1121F002AFBD1704766
:10123000FFF7E6FAFFF7B4FFFFF766FFFFF78AFF55
:101240000121A020FFF74CFF01490870FEE70000D4
:101250000000002000000000000000000102030464
:101260000607080900000000010203048C120008B0
:10127000000000201400000012120008A012000854
:101280001400002054040000221200080000000096
:101290000100000010000000000000000024F40025
:0400000508000131BD
:00000001FF
