:020000040800F2
:10000000C004002045010008E3110008ED100008BD
:10001000E1110008B1010008C5140008000000004B
:10002000000000000000000000000000B513000800
:100030000D02000800000000E5110008B7130008D9
:100040005F0100085F0100085F0100085F01000810
:100050005F0100085F0100085F0100085F01000800
:100060005F0100085F0100085F0100085F010008F0
:100070005F0100085F0100085F0100085F010008E0
:100080005F0100085F0100085F0100085F010008D0
:100090005F0100085F0100085F0100085F010008C0
:1000A0005F0100085F0100085F0100085F010008B0
:1000B0005F0100085F0100085F0100085F010008A0
:1000C0005F0100085F0100085F0100085F01000890
:1000D0005F0100085F0100085F0100085F01000880
:1000E0005F0100085F0100085F0100085F01000870
:1000F0005F0100085F0100085F0100085F01000860
:100100005F0100085F0100085F0100085F0100084F
:100110005F0100085F0100085F0100085F0100083F
:100120005F0100085F0100085F0100085F0100082F
:10013000DFF80CD000F02AF800480047D31500087B
:10014000C00400200648804706480047FEE7FEE757
:10015000FEE7FEE7FEE7FEE7FEE7FEE7FEE7FEE777
:100160000914000831010008D2B201E000F8012BA7
:10017000491EFBD270470022F6E710B513460A4627
:1001800004461946FFF7F0FF204610BD064C074D08
:1001900006E0E06840F0010394E807009847103457
:1001A000AC42F6D3FFF7C8FF0C1600082C16000867
:1001B000FEE70000F8B50120114D8DF80000002485
:1001C0004FF07046641CB44219D200220421284624
:1001D00000F01AF9642301220A490B4800F065FD7A
:1001E000642301226946084800F0B2FC0122042180
:1001F000284600F009F99DF80000C007E2D1F8BDDB
:1002000000080140010000202800002070477047CE
:100210002DE9F84FDFF8C891002409F1040A0AF12A
:10022000040B23460F270BF1040ED1E00125A54056
:1002300006EA0502AA4276D1DFF8A8C14E68A6EB0D
:100240000C0866452BD00DDC032E34D005DC36B30C
:10025000012E19D0022E2FD11BE0112E16D0122EF6
:100260002AD119E0B8F5881F19D006DCB8F5803F0F
:1002700015D0B8F5801F1FD111E0B8F5001F0ED0C2
:10028000B8F5041F18D10AE0CB6815E0CB681B1D38
:1002900012E0CB6808330FE0CB680C330CE08B68BE
:1002A0002BB1012B4FF0080303D0456104E0042378
:1002B00002E0056100E00023FF2A01D8064601E0C4
:1002C00000F104064FEA840501D9A5F12005D6F80E
:1002D000008007FA05FC28EA0C0803FA05F548EA4D
:1002E0000508C6F800804D68ED0070D53E4DAE693A
:1002F00046F00106AE61AD6924F0030605F0010584
:1003000000953A4D06EB050CDCF80850A607360FB1
:1003100007FA06F825EA0805DFF8D480404503D13E
:100320004FF0000825E052E0DFF8C880404502D1D8
:100330004FF001081DE0DFF8C080404502D14FF0CA
:10034000020816E0DFF8B480404502D14FF0030800
:100350000FE0DFF8AC80404502D14FF0040808E020
:10036000DFF8A080404502D14FF0050801E04FF0D2
:10037000060808FA06F848EA0508CCF808804D682F
:10038000D9F80060ED034D4601D5164300E09643D1
:100390002E604D68DAF80060AD03554601D516436E
:1003A00000E096432E604D68DBF80060ED025D468C
:1003B00001D5164300E096432E604D68DEF80060DC
:1003C000AD02754601D5164300E096432E60641CCD
:1003D0000A681646E2407FF429AFBDE8F88F0000B6
:1003E0000004014000001110001002400000014014
:1003F00000080140000C01400010014000140140C1
:1004000000180140001C01400AB101617047090455
:10041000FBE70000014880687047000018000020DA
:1004200002488168027811448160704718000020FA
:10043000074810B5016841F010010160032000F089
:1004400067F8002000F006F800F024F8002010BD46
:100450000020024070B50D4D04464FF47A712878A3
:10046000B1FBF0F00A490968B1FBF0F000F0C1FD02
:1004700048B9102C07D200222146501E00F028F85F
:1004800000206C6070BD012070BD000018000020CD
:10049000240000200C4808B5816941F00101816108
:1004A000816901F001010091C16941F08051C16190
:1004B000C06900F0805000900448416821F0E0617C
:1004C00041F00071416008BD001002400000014091
:1004D000F0B40E4B1B680C46C3F30223C3F10705AF
:1004E000042D00D90425191D072901D2002300E09D
:1004F000DB1E012606FA05F1491E214099409E4067
:10050000761E16403143F0BC01F044B80CED00E01B
:10051000064900F0070208684FF6FF03184040EA5A
:100520000220034A10430860704700000CED00E011
:100530000000FA052DE9F0470F46050061D0434E53
:10054000306800F00700B84209D2306820F0070098
:1005500038433060306800F00700B84251D1286855
:100560003B4C810712D5400703D5606840F4E0603A
:1005700060602878000703D5606840F460506060D0
:100580006068A96820F0F000084360602878C00720
:1005900028D06868012810D02168022810D0890767
:1005A00000292EDA616821F0030101436160FFF741
:1005B00031FF804641F288390DE021688903EFE779
:1005C0008901EDE7FFF726FFA0EB0801494502D9B5
:1005D0000320BDE8F0876068696800F00C00B0EBAC
:1005E000810FEFD1306800F00700B8420BD93068B6
:1005F00020F0070038433060306800F00700B84250
:1006000001D00120E5E72878400705D56068E96852
:1006100020F4E060084360602878000706D5606831
:10062000296920F4605040EAC100606000F038F8A9
:100630006168084AC1F30311515CC840064908606B
:1006400006480068FFF706FF0020C2E700200240CE
:1006500000100240F4150008240000201C000020B7
:100660000448054900684968044AC1F30221515C05
:10067000C840704724000020001002400416000803
:100680000448054900684968044AC1F3C221515C25
:10069000C8407047240000200010024004160008E3
:1006A00012A185B00FC98DE80F0014A0144A00688C
:1006B00004905168134801F00C03042B10D0082B50
:1006C0000ED1C1F38343C9031DF803000AD5516855
:1006D00004AAC1F34041515C0A4A5043B0FBF1F017
:1006E00005B0704708494843FAE7000002030405D3
:1006F000060708090A0B0C0D0E0F1010010200006E
:100700000010024000127A0000093D002DE9F84F68
:10071000040070D02078C04DC00749D06868C0F38D
:100720008100012807D06868C0F38100022809D140
:100730006868C00306D52868800339D5606800283A
:10074000E7D035E06068B0F5803F0BD010B1B0F570
:10075000A02F11D0286820F480302860286820F469
:10076000802002E0286840F480302860606890B102
:10077000FFF750FE06460AE0286840F48020286013
:10078000F0E700BFFFF746FE801B642873D8286897
:100790008003F7D50CE0FFF73DFE064605E000BFFD
:1007A000FFF738FE801B6428F0D828688003F7D450
:1007B00020789A4E80074FF001094FF0000839D594
:1007C000686810F00C0F07D06868C0F38100022839
:1007D00009D16868C00306D42868800714D5206949
:1007E000012808D110E02069B0B1C6F80090FFF7E9
:1007F00011FE074605E00AE1FFF70CFEC01B0228C8
:10080000C4D828688007F7D52868616920F0F80007
:1008100040EAC10028600DE0C6F80080FFF7FAFD4D
:10082000074604E0FFF7F6FDC01B022823D828681E
:100830008007F7D4207800072CD57948A169D9B171
:10084000C0F80090FFF7E6FD074604E0FFF7E2FD81
:10085000C01B02280FD8686A8007F7D571484FF48B
:10086000FA510068B0FBF1F0009000BF0098411E03
:100870000091FAD20EE080E0C0F80080FFF7CAFDD8
:10088000074604E0FFF7C6FDC01B022875D8686A5A
:100890008007F7D42078400760D5E8690027C000BA
:1008A00008D4E86940F08050E861E869012700F069
:1008B000805000905C480168C90513D401688346E4
:1008C00041F480710160FFF7A5FD824606E000BF9C
:1008D000FFF7A0FDA0EB0A0064284ED8DBF800006B
:1008E000C005F5D5E06801280AD008B1052813D065
:1008F000286A20F001002862286A20F0040002E043
:10090000286A40F001002862E06841F2883B98B113
:10091000FFF780FD82460BE0286A40F00400286261
:10092000EEE700BFFFF776FDA0EB0A0159455AD864
:10093000286A8007F6D50CE0FFF76CFD824605E0DB
:10094000FFF768FDA0EB0A0159454CD8286A8007DB
:10095000F6D41FB1E86920F08050E861E06988B3FF
:100960006968C1F38101022944D00228C6F8608079
:1009700004D0FFF74FFD044638E034E0FFF74AFDAE
:10098000074604E0FFF746FDC01B02282BD8286865
:100990008001F7D4206AB0F5803F05D16868A1686E
:1009A00020F4003008436860D4E90801084369680E
:1009B00021F4741108436860C6F86090FFF72AFDBF
:1009C000044606E025E000BFFFF724FD001B0228D7
:1009D00009D828688001F7D51BE000BFFFF71AFD92
:1009E000001B022802D90320BDE8F88F2868800187
:1009F000F4D40EE00128F7D06868226A00F4803150
:100A0000914204D1616A00F47010884201D0012043
:100A1000EAE70020E8E70000001002400000424240
:100A200080044242240000200070004070B50400A1
:100A300009D0606A002540B125616561A56294F81E
:100A4000510040B10CE0012070BD6068B0F5827FBC
:100A5000F4D0E561F2E784F85050204600F040F809
:100A6000022084F851002068016821F040010160F3
:100A7000A088218900F4827001F404410843A1890F
:100A800001F400610843217C01F002010843217D4B
:100A900001F001010843218B01F400710843217F1B
:100AA00001F03801084394F8201001F08001084358
:100AB000218D01F40051084321680860A0690421D8
:100AC00001EA1040216848602068C16921F4006192
:100AD000C1616565012084F85100002070BD0000EF
:100AE00030B585B00024009401940294039400680A
:100AF0001449884223D11448816941F480518161AD
:100B0000816901F480510491816941F0040181619E
:100B100080690E4D00F004000490A0200090022097
:100B200001900320039069462846FFF771FB40209F
:100B3000CDE90004694628460294FFF769FB05B039
:100B400030BD0000003001400010024000080140AC
:100B50002DE9F84F044640680025984616460F4692
:100B60004FF0040BB0F5827F01D1A06888B194F8F2
:100B70005000012818D0012084F85000FFF74AFCEB
:100B8000814694F851004FF0000A01280ED002254A
:100B900082E084F851B013460A462046CDF8008022
:100BA00000F036F9BDE8F88F0220FBE7002F72D085
:100BB000002E70D084F851B0C4F854A0A763A68763
:100BC000E687C4F830A0A4F834A0A4F836A0C4F88E
:100BD00040A0C4F844A0A068B0F5004F09D1206837
:100BE000016821F0400101602068016821F4804122
:100BF000016020680168490603D4016841F04001A2
:100C00000160E068D8B139E020688168C90709D07F
:100C1000007BA16B0870A06B401CA063E08F401E9E
:100C2000E0870CE0FFF7F6FBA0EB0901414503D399
:100C3000B8F1FF3F03D036E0B8F1000F33D0E08FBA
:100C40000028E1D11DE020688168C90709D0C0688B
:100C5000A16B0880A06B801CA063E08F401EE08722
:100C60000CE0FFF7D7FBA0EB0901414503D3B8F136
:100C7000FF3F03D017E0B8F1000F14D0E08F002839
:100C8000E1D14A464146204600F0FAFA08B1202058
:100C90006065606D00B10125012084F8510084F881
:100CA00050A028467EE70325F6E72DE9F84F0446D5
:100CB00090F8500000271D461646894601280DD0A1
:100CC0004FF0010B84F850B0FFF7A4FB804694F876
:100CD0005100BA46012804D0022793E00220BDE863
:100CE000F88FB9F1000F73D0002E71D0032084F873
:100CF0005100C4F854A0C4F83090A686E686C4F823
:100D000038A0A4F83CA0A4F83EA0C4F844A0C4F8BD
:100D100040A0A068B0F5004F09D12068016821F01B
:100D2000400101602068016841F480410160206851
:100D30000168490603D4016841F040010160E068A0
:100D4000B0F5006F606803D030B3012E24D041E0CD
:100D500008B1012E1CD1206B21680088C86006E014
:100D600020688168890709D5216B0988C160206BDB
:100D7000801C2063E08E401EE08609E0FFF74AFBFE
:100D8000A0EB0800A84202D3681C01D031E07DB37B
:100D9000E08E0028E4D120E0206B21680078087301
:100DA00006E020688168890709D5216B09780173FD
:100DB000206B401C2063E08E401EE0860AE0FFF7B7
:100DC00029FBA0EB0800A84203D3681C02D010E066
:100DD00017E06DB1E08E0028E3D142462946204657
:100DE00000F07CFA08B120206065A06818B106E028
:100DF000FFE7032706E02068C16880680090606D07
:100E000000B1012784F851B084F850A0384666E755
:100E10002DE9F84F044690F8500000270A9E1D4621
:100E200092468B464FF0010901280ED0012084F82C
:100E30005000FFF7EFFA804694F8510061680128EE
:100E40000CD0B1F5827F07D102E00220BDE8F88F17
:100E5000A16809B9042801D00227C2E0BBF1000F44
:100E600027D0BAF1000F24D01DB394F85100042804
:100E700002D0052084F8510000206065C4F838A035
:100E8000E587A587C4F830B0E586A5862064606450
:100E900020680168490603D4016841F040010160FF
:100EA000E068B0F5006F606805D0E8B3012D46D06A
:100EB0007FE0012795E008B1012D39D1206B216831
:100EC0000088C860206B801C2063E08E401EE08696
:100ED0002EE02068816889070FD5E18E69B1B9F1EC
:100EE000010F0AD1216B0988C160206B801C20632F
:100EF000E08E401EE0864FF0000920688168C90737
:100F00000CD0E18F51B1C068A16B0880A06B801C30
:100F1000A063E08F401EE0874FF00109FFF77AFAE7
:100F2000A0EB0800B04200E009E001D3701C50D1F2
:100F3000E08E0028CDD1E08F0028CAD13FE0206BA1
:100F4000216800780873206B401C2063E08E401EEF
:100F5000E0862EE02068816889070FD5E18E69B1AF
:100F6000B9F1010F0AD1216B09780173206B401C84
:100F70002063E08E401EE0864FF000092068816803
:100F8000C9070CD0E18F51B1C068A16B0870A06B8C
:100F9000401CA063E08F401EE0874FF00109FFF77F
:100FA00039FAA0EB0800B04202D3701C01D010E067
:100FB0007EB1E08E0028CDD1E08F0028CAD1424614
:100FC0003146204600F08AF928B1012720206065CB
:100FD00007E0032705E0A06818B92068C1688068A9
:100FE0000090012084F85100002084F85000384619
:100FF0002CE710B5401EB0F1807F01D3012010BD59
:101000004FF0E02460610F21601700F0C3FA002068
:10101000A06107202061002010BD70B5040004D03D
:1010200094F83900002510B106E0012070BD84F865
:101030003850204600F022F8242084F83900206837
:10104000C16821F40051C160204600F0DFF920683A
:10105000016921F4904101612068416921F02A0170
:1010600041612068C16841F40051C160E5632020FE
:1010700084F8390084F83A00002070BD30B585B09E
:101080000024009401940294039400681449884257
:1010900024D11448816941F480418161816901F45E
:1010A00080410491816941F00401816180690E4DA4
:1010B00000F0040004904FF40070009002200190B2
:1010C0000320039069462846FFF7A2F82815CDE9CA
:1010D0000004694628460294FFF79AF805B030BD2F
:1010E000003801400010024000080140FEE7000007
:1010F00010B586B000200090019002900390164831
:10110000816941F010018161816901F01001049150
:10111000816941F020018161816901F02001049120
:10112000816941F00401816180690C4C00F0040088
:101130000490012204212046FFF766F904200121D2
:10114000CDE900010320CDE9021069462046FFF7F2
:101150005FF806B010BD000000100240000801401A
:10116000104810B50E4901604FF4827141600021B2
:101170008160C1604FF400720161C0E9051208226C
:10118000C0E90721416281620A21C162FFF74EFC7A
:10119000002803D0BDE81040FFF739B810BD0000AB
:1011A00000300140280000200C4810B50A490160B9
:1011B0004FF4E1314160002181600C22C160C0E93F
:1011C00004128161C161FFF728FF002803D0BDE848
:1011D0001040FFF71CB810BD00380140800000200F
:1011E000FEE770477047000010B5FEF7E3FF104CB4
:1011F000002204212046FFF707F9642301220D494C
:101200000D48FFF752FD0B4964230322491C0A488D
:10121000FFF74BFD0749642305220E310648FFF70F
:1012200097FC20460122BDE810400421FFF7ECB8EE
:1012300000080140050000202800002010B50D4CDA
:10124000002204212046FFF7DFF8642301220A4927
:101250000A48FFF72AFD0849642305220931074897
:10126000FFF776FC20460122BDE810400421FFF77D
:10127000CBB800000008014000000020280000203A
:10128000F8B5044640684FF48273984217D1A068BD
:101290004FF48065B0F5004F01D0A8420FD120680F
:1012A000066826F0400606606068984207D1A0688C
:1012B000A84204D100920B460022012103E00092D3
:1012C0000B4600228021204600F018F8002804D0A8
:1012D000606D40F0200060650320F8BD38B50B4616
:1012E000009204460022802100F008F8002804D073
:1012F000606D40F020006065032038BD2DE9F843A3
:101300001E46914688460446089DFFF783F8401B19
:10131000351AFFF77FF8074625480068C0F3CB3041
:10132000684338E0701C37D0FFF774F8C01BA84240
:1013300003D215B1009860B32CE02068416821F019
:10134000E00141606068B0F5827F0BD1A068B0F524
:10135000004F02D0B0F5806F04D12068016821F001
:1013600040010160A06AB0F5005F09D12068016802
:1013700021F4005101602068016841F400510160CE
:10138000012084F85100002084F850000320BDE8BB
:10139000F8830025401E00902068816838EA01002B
:1013A00004D000214945BDD10020F0E70121F9E733
:1013B000240000207047FFF733B830B58FB02821E4
:1013C0006846FEF7D8FE14210AA8FEF7D4FE0121D4
:1013D0000804CDE900100024029402250491CDE90F
:1013E00007504FF4E01009906846FFF78FF90F207F
:1013F000CDE90A056802CDE90C4002210AA80E9445
:10140000FFF798F80FB030BD7047000070B5044684
:1014100000680169E26821F44051114301612169CA
:10142000A0680843616908432168CA6841F20C63F7
:101430009A430243CA6020684169A26921F440715D
:10144000114341611E492068884202D1FFF718F913
:1014500001E0FFF705F900EBC00101EB0012606845
:1014600064218000B2FBF0F3B3FBF1F36FF01806D8
:101470007343B2FBF0F5B2FBF0F605EB83053223C4
:1014800003EB0515B5FBF1F5B6FBF1F605F0F0053C
:1014900005EB0615B2FBF0F6B2FBF0F0B0FBF1F095
:1014A0006FF01802504306EB800003EB0010B0FB16
:1014B000F1F0216800F00F002844886070BD000042
:1014C00000380140FEE7000010B5FEF773FE2E4C19
:1014D000002204212046FEF797FF642301222B49B6
:1014E0002B48FFF7E2FB012204212046FEF78CFF88
:1014F000002204212046FEF787FF244964230122AD
:10150000491C2348FFF7D1FB204964230322091D0E
:101510001F48FFF7CAFB012204212046FEF774FF93
:10152000FEF748FE002204212046FEF76DFF6423EB
:10153000012216491648FFF7B8FB01220421204674
:10154000FEF762FF002204212046FEF75DFF0F49EF
:1015500064230122891C0E48FFF7A7FB0B49642373
:101560000322091D0A48FFF7A0FB0849642305224E
:101570000C310748FFF799FB20460122BDE81040D7
:101580000421FEF741BF00000008014002000020D6
:10159000280000200907090E002804DB00F1E020E4
:1015A00080F80014704700F00F0000F1E02080F890
:1015B000141D704702E008C8121F08C1002AFAD1A2
:1015C00070477047002001E001C1121F002AFBD1C3
:1015D0007047FEF72DFFFFF7F0FEFFF789FDFFF7DD
:1015E000BFFDFFF7E1FDFFF729FEFFF76DFFFFF7F6
:1015F000FBFDFEE700000000000000000102030404
:101600000607080900000000010203042C16000868
:101610000000002028000000B4150008541600083F
:101620002800002098040000C4150008900506203A
:101630000203000000000000000099887766550052
:101640000000000001000000100000000000000089
:041650000024F4007E
:0400000508000131BD
:00000001FF
